{
  "contractName": "Ownable",
  "abi": [
    {
      "inputs": [],
      "payable": false,
      "stateMutability": "nonpayable",
      "type": "constructor"
    },
    {
      "anonymous": false,
      "inputs": [
        {
          "indexed": true,
          "name": "oldOwner",
          "type": "address"
        },
        {
          "indexed": true,
          "name": "newOwner",
          "type": "address"
        }
      ],
      "name": "TransferOwnership",
      "type": "event"
    },
    {
      "constant": true,
      "inputs": [],
      "name": "ownerLookup",
      "outputs": [
        {
          "name": "",
          "type": "address"
        }
      ],
      "payable": false,
      "stateMutability": "view",
      "type": "function"
    },
    {
      "constant": true,
      "inputs": [],
      "name": "isOwner",
      "outputs": [
        {
          "name": "",
          "type": "bool"
        }
      ],
      "payable": false,
      "stateMutability": "view",
      "type": "function"
    },
    {
      "constant": false,
      "inputs": [],
      "name": "renounceOwnership",
      "outputs": [],
      "payable": false,
      "stateMutability": "nonpayable",
      "type": "function"
    },
    {
      "constant": false,
      "inputs": [
        {
          "name": "newOwner",
          "type": "address"
        }
      ],
      "name": "transferOwnership",
      "outputs": [],
      "payable": false,
      "stateMutability": "nonpayable",
      "type": "function"
    }
  ],
  "bytecode": "0x608060405234801561001057600080fd5b5060008054600160a060020a0319163317808255604051600160a060020a039190911691907f5c486528ec3e3f0ea91181cff8116f02bfa350e03b8b6f12e00765adbb5af85c908290a3610256806100696000396000f3fe60806040526004361061005b577c01000000000000000000000000000000000000000000000000000000006000350463715018a681146100605780638f32d59b14610077578063e02e64ea146100a0578063f2fde38b146100d1575b600080fd5b34801561006c57600080fd5b50610075610104565b005b34801561008357600080fd5b5061008c61016e565b604080519115158252519081900360200190f35b3480156100ac57600080fd5b506100b561017f565b60408051600160a060020a039092168252519081900360200190f35b3480156100dd57600080fd5b50610075600480360360208110156100f457600080fd5b5035600160a060020a031661018e565b61010c61016e565b151561011757600080fd5b60008054604051600160a060020a03909116907f5c486528ec3e3f0ea91181cff8116f02bfa350e03b8b6f12e00765adbb5af85c908390a36000805473ffffffffffffffffffffffffffffffffffffffff19169055565b600054600160a060020a0316331490565b600054600160a060020a031690565b61019661016e565b15156101a157600080fd5b6101aa816101ad565b50565b600160a060020a03811615156101c257600080fd5b60008054604051600160a060020a03808516939216917f5c486528ec3e3f0ea91181cff8116f02bfa350e03b8b6f12e00765adbb5af85c91a36000805473ffffffffffffffffffffffffffffffffffffffff1916600160a060020a039290921691909117905556fea165627a7a72305820b1ac82bba81200ecf5b3bab56a7b60638cd262d965864fb78e124b8d5510619f0029",
  "source": "pragma solidity >=0.4.24;\r\n\r\n/// Provides basic authorization control\r\ncontract Ownable {\r\n    address private origOwner;\r\n\r\n    // Define an Event\r\n    event TransferOwnership(address indexed oldOwner, address indexed newOwner);\r\n\r\n    /// Assign the contract to an owner\r\n    constructor () public {\r\n        origOwner = msg.sender;\r\n        emit TransferOwnership(address(0), origOwner);\r\n    }\r\n\r\n    /// Look up the address of the owner\r\n    function ownerLookup() public view returns (address) {\r\n        return origOwner;\r\n    }\r\n\r\n    /// Define a function modifier 'onlyOwner'\r\n    modifier onlyOwner() {\r\n        require(isOwner());\r\n        _;\r\n    }\r\n\r\n    /// Check if the calling address is the owner of the contract\r\n    function isOwner() public view returns (bool) {\r\n        return msg.sender == origOwner;\r\n    }\r\n\r\n    /// Define a function to renounce ownerhip\r\n    function renounceOwnership() public onlyOwner {\r\n        emit TransferOwnership(origOwner, address(0));\r\n        origOwner = address(0);\r\n    }\r\n\r\n    /// Define a public function to transfer ownership\r\n    function transferOwnership(address newOwner) public onlyOwner {\r\n        _transferOwnership(newOwner);\r\n    }\r\n\r\n    /// Define an internal function to transfer ownership\r\n    function _transferOwnership(address newOwner) internal {\r\n        require(newOwner != address(0));\r\n        emit TransferOwnership(origOwner, newOwner);\r\n        origOwner = newOwner;\r\n    }\r\n}\r\n",
  "sourcePath": "C:\\Users\\ADMIN\\Ethereum-SupplyChain\\contracts\\miraccore\\Ownable.sol",
  "compiler": {
    "name": "solc",
    "version": "0.5.1+commit.c8a2cb62.Emscripten.clang"
  },
  "schemaVersion": "3.0.2",
  "updatedAt": "2022-11-02T00:29:24.934Z",
  "devdoc": {
    "methods": {}
  },
  "userdoc": {
    "methods": {
      "constructor": "Assign the contract to an owner",
      "isOwner()": {
        "notice": "Check if the calling address is the owner of the contract"
      },
      "ownerLookup()": {
        "notice": "Look up the address of the owner"
      },
      "renounceOwnership()": {
        "notice": "Define a function to renounce ownerhip"
      },
      "transferOwnership(address)": {
        "notice": "Define a public function to transfer ownership"
      }
    },
    "notice": "Provides basic authorization control"
  }
}