{
  "contractName": "SupplyChain",
  "abi": [
    {
      "constant": false,
      "inputs": [
        {
          "name": "account",
          "type": "address"
        }
      ],
      "name": "addConsumer",
      "outputs": [],
      "payable": false,
      "stateMutability": "nonpayable",
      "type": "function",
      "signature": "0x112940f9"
    },
    {
      "constant": true,
      "inputs": [
        {
          "name": "account",
          "type": "address"
        }
      ],
      "name": "isRetailer",
      "outputs": [
        {
          "name": "",
          "type": "bool"
        }
      ],
      "payable": false,
      "stateMutability": "view",
      "type": "function",
      "signature": "0x5da09b88"
    },
    {
      "constant": false,
      "inputs": [],
      "name": "renounceDistributor",
      "outputs": [],
      "payable": false,
      "stateMutability": "nonpayable",
      "type": "function",
      "signature": "0x644241db"
    },
    {
      "constant": false,
      "inputs": [],
      "name": "renounceOwnership",
      "outputs": [],
      "payable": false,
      "stateMutability": "nonpayable",
      "type": "function",
      "signature": "0x715018a6"
    },
    {
      "constant": false,
      "inputs": [
        {
          "name": "account",
          "type": "address"
        }
      ],
      "name": "addDistributor",
      "outputs": [],
      "payable": false,
      "stateMutability": "nonpayable",
      "type": "function",
      "signature": "0x7250e224"
    },
    {
      "constant": false,
      "inputs": [
        {
          "name": "account",
          "type": "address"
        }
      ],
      "name": "addFarmer",
      "outputs": [],
      "payable": false,
      "stateMutability": "nonpayable",
      "type": "function",
      "signature": "0x80c3f96d"
    },
    {
      "constant": false,
      "inputs": [],
      "name": "renounceFarmer",
      "outputs": [],
      "payable": false,
      "stateMutability": "nonpayable",
      "type": "function",
      "signature": "0x80fc0ce4"
    },
    {
      "constant": true,
      "inputs": [
        {
          "name": "account",
          "type": "address"
        }
      ],
      "name": "isConsumer",
      "outputs": [
        {
          "name": "",
          "type": "bool"
        }
      ],
      "payable": false,
      "stateMutability": "view",
      "type": "function",
      "signature": "0x834ff739"
    },
    {
      "constant": false,
      "inputs": [
        {
          "name": "account",
          "type": "address"
        }
      ],
      "name": "addRetailer",
      "outputs": [],
      "payable": false,
      "stateMutability": "nonpayable",
      "type": "function",
      "signature": "0x8ec4f505"
    },
    {
      "constant": true,
      "inputs": [
        {
          "name": "account",
          "type": "address"
        }
      ],
      "name": "isDistributor",
      "outputs": [
        {
          "name": "",
          "type": "bool"
        }
      ],
      "payable": false,
      "stateMutability": "view",
      "type": "function",
      "signature": "0x8f0c86fa"
    },
    {
      "constant": true,
      "inputs": [],
      "name": "isOwner",
      "outputs": [
        {
          "name": "",
          "type": "bool"
        }
      ],
      "payable": false,
      "stateMutability": "view",
      "type": "function",
      "signature": "0x8f32d59b"
    },
    {
      "constant": true,
      "inputs": [
        {
          "name": "account",
          "type": "address"
        }
      ],
      "name": "isFarmer",
      "outputs": [
        {
          "name": "",
          "type": "bool"
        }
      ],
      "payable": false,
      "stateMutability": "view",
      "type": "function",
      "signature": "0xb9429069"
    },
    {
      "constant": false,
      "inputs": [],
      "name": "renounceRetailer",
      "outputs": [],
      "payable": false,
      "stateMutability": "nonpayable",
      "type": "function",
      "signature": "0xdb0e6a2f"
    },
    {
      "constant": true,
      "inputs": [],
      "name": "ownerLookup",
      "outputs": [
        {
          "name": "",
          "type": "address"
        }
      ],
      "payable": false,
      "stateMutability": "view",
      "type": "function",
      "signature": "0xe02e64ea"
    },
    {
      "constant": false,
      "inputs": [
        {
          "name": "newOwner",
          "type": "address"
        }
      ],
      "name": "transferOwnership",
      "outputs": [],
      "payable": false,
      "stateMutability": "nonpayable",
      "type": "function",
      "signature": "0xf2fde38b"
    },
    {
      "constant": false,
      "inputs": [
        {
          "name": "account",
          "type": "address"
        }
      ],
      "name": "renounceConsumer",
      "outputs": [],
      "payable": false,
      "stateMutability": "nonpayable",
      "type": "function",
      "signature": "0xf487d48d"
    },
    {
      "inputs": [],
      "payable": true,
      "stateMutability": "payable",
      "type": "constructor",
      "signature": "constructor"
    },
    {
      "anonymous": false,
      "inputs": [
        {
          "indexed": false,
          "name": "upc",
          "type": "uint256"
        }
      ],
      "name": "ProduceByFarmer",
      "type": "event",
      "signature": "0xe8a027a2bb83abbf6ec926b84d4aeb91585c16b58b27b8d0f0fb451566a55211"
    },
    {
      "anonymous": false,
      "inputs": [
        {
          "indexed": false,
          "name": "upc",
          "type": "uint256"
        }
      ],
      "name": "ForSaleByFarmer",
      "type": "event",
      "signature": "0x7a02b5a0b1f928cffcafd0e750f369a40f124f4f34f65801fe1f0d945b9a7915"
    },
    {
      "anonymous": false,
      "inputs": [
        {
          "indexed": false,
          "name": "upc",
          "type": "uint256"
        }
      ],
      "name": "PurchasedByDistributor",
      "type": "event",
      "signature": "0xacd9402b9f9e8c15fa7c1819f8393ca56eb61316cc354fc6ac2150aed3ce7931"
    },
    {
      "anonymous": false,
      "inputs": [
        {
          "indexed": false,
          "name": "upc",
          "type": "uint256"
        }
      ],
      "name": "ShippedByFarmer",
      "type": "event",
      "signature": "0xe6ae062d51064ae2a5a31a72fcb1bee1d343fdc6bddc1d3dfce658ece4f03212"
    },
    {
      "anonymous": false,
      "inputs": [
        {
          "indexed": false,
          "name": "upc",
          "type": "uint256"
        }
      ],
      "name": "ReceivedByDistributor",
      "type": "event",
      "signature": "0xc8ca2150e6e1849a10ef5aa4932060fa353bcacdffeb150c9e1890c6ab9403cc"
    },
    {
      "anonymous": false,
      "inputs": [
        {
          "indexed": false,
          "name": "upc",
          "type": "uint256"
        }
      ],
      "name": "ProcessedByDistributor",
      "type": "event",
      "signature": "0x5725e53fd0efed5294b7db2af148f040264a63630b4deb0afbccf6e60830988a"
    },
    {
      "anonymous": false,
      "inputs": [
        {
          "indexed": false,
          "name": "upc",
          "type": "uint256"
        }
      ],
      "name": "PackagedByDistributor",
      "type": "event",
      "signature": "0xe66bb55f536a4cc96647dde6ff37b712c07348eaa88366931f491d93c0fcd981"
    },
    {
      "anonymous": false,
      "inputs": [
        {
          "indexed": false,
          "name": "upc",
          "type": "uint256"
        }
      ],
      "name": "ForSaleByDistributor",
      "type": "event",
      "signature": "0x539b4a835a8a5d1bc5756a9f146e2bfeaa6bd6b1fa77a7631c0a5154c86cdd03"
    },
    {
      "anonymous": false,
      "inputs": [
        {
          "indexed": false,
          "name": "upc",
          "type": "uint256"
        }
      ],
      "name": "PurchasedByRetailer",
      "type": "event",
      "signature": "0xaa7352d10146444c3afd9bd7fb0ae56b0a85e81139536bbec3f1f660fddd7be1"
    },
    {
      "anonymous": false,
      "inputs": [
        {
          "indexed": false,
          "name": "upc",
          "type": "uint256"
        }
      ],
      "name": "ShippedByDistributor",
      "type": "event",
      "signature": "0xc5c33776d405e5686e4386e1ef31a65cf6195e4f7ceb8808ab64d05b6ccbc2a6"
    },
    {
      "anonymous": false,
      "inputs": [
        {
          "indexed": false,
          "name": "upc",
          "type": "uint256"
        }
      ],
      "name": "ReceivedByRetailer",
      "type": "event",
      "signature": "0x322f34e90f2269750b3e28178631d975cc678db36f21098fe548b7f755ce0bd0"
    },
    {
      "anonymous": false,
      "inputs": [
        {
          "indexed": false,
          "name": "upc",
          "type": "uint256"
        }
      ],
      "name": "ForSaleByRetailer",
      "type": "event",
      "signature": "0x59e7ad085805e2b02ad4b0f8033bd75e7ee4c8cd43f996267463585e35896252"
    },
    {
      "anonymous": false,
      "inputs": [
        {
          "indexed": false,
          "name": "upc",
          "type": "uint256"
        }
      ],
      "name": "PurchasedByConsumer",
      "type": "event",
      "signature": "0xc7e94446a942a0541d0224ece380a730c85f03db7188fca783225da9255929f7"
    },
    {
      "anonymous": false,
      "inputs": [
        {
          "indexed": true,
          "name": "account",
          "type": "address"
        }
      ],
      "name": "ConsumerAdded",
      "type": "event",
      "signature": "0x28b26e7a3d20aedbc5f8f2ebf7da671c0491723a2b78f47a097b0e46dee07142"
    },
    {
      "anonymous": false,
      "inputs": [
        {
          "indexed": true,
          "name": "account",
          "type": "address"
        }
      ],
      "name": "ConsumerRemoved",
      "type": "event",
      "signature": "0xe3f5ed5f263f1f01764a96edfc7d025f511ec5f7d180e8816908b78bcf74f098"
    },
    {
      "anonymous": false,
      "inputs": [
        {
          "indexed": true,
          "name": "account",
          "type": "address"
        }
      ],
      "name": "RetailerAdded",
      "type": "event",
      "signature": "0x71ae26cad02663e3d92efd6ec56031a80d74a20c0ab4183faa8bf262261c9baa"
    },
    {
      "anonymous": false,
      "inputs": [
        {
          "indexed": true,
          "name": "account",
          "type": "address"
        }
      ],
      "name": "RetailerRemoved",
      "type": "event",
      "signature": "0xdb7176e79cffef81cb01767dd0447a0b24bb72ca9778d4b245581086b2a7e6db"
    },
    {
      "anonymous": false,
      "inputs": [
        {
          "indexed": true,
          "name": "account",
          "type": "address"
        }
      ],
      "name": "DistributorAdded",
      "type": "event",
      "signature": "0xddbf200aa634dc3fb81cfd68583dd1040d1c751d335e1d86b631bde3e977fea8"
    },
    {
      "anonymous": false,
      "inputs": [
        {
          "indexed": true,
          "name": "account",
          "type": "address"
        }
      ],
      "name": "DistributorRemoved",
      "type": "event",
      "signature": "0x126174f6cf49c81cdb4a9214c6b8f037bef55b4ec31e4fc776cea2a1c8a88d59"
    },
    {
      "anonymous": false,
      "inputs": [
        {
          "indexed": true,
          "name": "account",
          "type": "address"
        }
      ],
      "name": "FarmerAdded",
      "type": "event",
      "signature": "0x2e0ded4123377a3c2bc9a26f1717655a129e2f20752924d42e730ec89c83dbd0"
    },
    {
      "anonymous": false,
      "inputs": [
        {
          "indexed": true,
          "name": "account",
          "type": "address"
        }
      ],
      "name": "FarmerRemoved",
      "type": "event",
      "signature": "0xa5e0f060af304ab17dd418c7927e3da3ae7868189bf387aee09ab179ccc572f2"
    },
    {
      "anonymous": false,
      "inputs": [
        {
          "indexed": true,
          "name": "oldOwner",
          "type": "address"
        },
        {
          "indexed": true,
          "name": "newOwner",
          "type": "address"
        }
      ],
      "name": "TransferOwnership",
      "type": "event",
      "signature": "0x5c486528ec3e3f0ea91181cff8116f02bfa350e03b8b6f12e00765adbb5af85c"
    },
    {
      "constant": false,
      "inputs": [],
      "name": "kill",
      "outputs": [],
      "payable": false,
      "stateMutability": "nonpayable",
      "type": "function",
      "signature": "0x41c0e1b5"
    },
    {
      "constant": false,
      "inputs": [
        {
          "name": "_upc",
          "type": "uint256"
        },
        {
          "name": "_originFarmName",
          "type": "string"
        },
        {
          "name": "_originFarmInformation",
          "type": "string"
        },
        {
          "name": "_originFarmLatitude",
          "type": "string"
        },
        {
          "name": "_originFarmLongitude",
          "type": "string"
        },
        {
          "name": "_productNotes",
          "type": "string"
        },
        {
          "name": "_price",
          "type": "uint256"
        }
      ],
      "name": "produceItemByFarmer",
      "outputs": [],
      "payable": false,
      "stateMutability": "nonpayable",
      "type": "function",
      "signature": "0xe2bb26e9"
    },
    {
      "constant": false,
      "inputs": [
        {
          "name": "_upc",
          "type": "uint256"
        },
        {
          "name": "_price",
          "type": "uint256"
        }
      ],
      "name": "sellItemByFarmer",
      "outputs": [],
      "payable": false,
      "stateMutability": "nonpayable",
      "type": "function",
      "signature": "0xe618f000"
    },
    {
      "constant": false,
      "inputs": [
        {
          "name": "_upc",
          "type": "uint256"
        }
      ],
      "name": "purchaseItemByDistributor",
      "outputs": [],
      "payable": true,
      "stateMutability": "payable",
      "type": "function",
      "signature": "0xfdcdc06f"
    },
    {
      "constant": false,
      "inputs": [
        {
          "name": "_upc",
          "type": "uint256"
        }
      ],
      "name": "shippedItemByFarmer",
      "outputs": [],
      "payable": true,
      "stateMutability": "payable",
      "type": "function",
      "signature": "0x71f3ff90"
    },
    {
      "constant": false,
      "inputs": [
        {
          "name": "_upc",
          "type": "uint256"
        }
      ],
      "name": "receivedItemByDistributor",
      "outputs": [],
      "payable": false,
      "stateMutability": "nonpayable",
      "type": "function",
      "signature": "0x24cb1669"
    },
    {
      "constant": false,
      "inputs": [
        {
          "name": "_upc",
          "type": "uint256"
        },
        {
          "name": "slices",
          "type": "uint256"
        }
      ],
      "name": "processedItemByDistributor",
      "outputs": [],
      "payable": false,
      "stateMutability": "nonpayable",
      "type": "function",
      "signature": "0xeab7d6e8"
    },
    {
      "constant": false,
      "inputs": [
        {
          "name": "_upc",
          "type": "uint256"
        }
      ],
      "name": "packageItemByDistributor",
      "outputs": [],
      "payable": false,
      "stateMutability": "nonpayable",
      "type": "function",
      "signature": "0x91541355"
    },
    {
      "constant": false,
      "inputs": [
        {
          "name": "_upc",
          "type": "uint256"
        },
        {
          "name": "_price",
          "type": "uint256"
        }
      ],
      "name": "sellItemByDistributor",
      "outputs": [],
      "payable": false,
      "stateMutability": "nonpayable",
      "type": "function",
      "signature": "0x8adff8ba"
    },
    {
      "constant": false,
      "inputs": [
        {
          "name": "_upc",
          "type": "uint256"
        }
      ],
      "name": "purchaseItemByRetailer",
      "outputs": [],
      "payable": true,
      "stateMutability": "payable",
      "type": "function",
      "signature": "0x26d529b4"
    },
    {
      "constant": false,
      "inputs": [
        {
          "name": "_upc",
          "type": "uint256"
        }
      ],
      "name": "shippedItemByDistributor",
      "outputs": [],
      "payable": false,
      "stateMutability": "nonpayable",
      "type": "function",
      "signature": "0x82e831ec"
    },
    {
      "constant": false,
      "inputs": [
        {
          "name": "_upc",
          "type": "uint256"
        }
      ],
      "name": "receivedItemByRetailer",
      "outputs": [],
      "payable": false,
      "stateMutability": "nonpayable",
      "type": "function",
      "signature": "0x37b2f92c"
    },
    {
      "constant": false,
      "inputs": [
        {
          "name": "_upc",
          "type": "uint256"
        },
        {
          "name": "_price",
          "type": "uint256"
        }
      ],
      "name": "sellItemByRetailer",
      "outputs": [],
      "payable": false,
      "stateMutability": "nonpayable",
      "type": "function",
      "signature": "0x546eb586"
    },
    {
      "constant": false,
      "inputs": [
        {
          "name": "_upc",
          "type": "uint256"
        }
      ],
      "name": "purchaseItemByConsumer",
      "outputs": [],
      "payable": true,
      "stateMutability": "payable",
      "type": "function",
      "signature": "0xdf74dc3a"
    },
    {
      "constant": true,
      "inputs": [
        {
          "name": "_upc",
          "type": "uint256"
        }
      ],
      "name": "fetchItemBufferOne",
      "outputs": [
        {
          "name": "itemSKU",
          "type": "uint256"
        },
        {
          "name": "itemUPC",
          "type": "uint256"
        },
        {
          "name": "ownerID",
          "type": "address"
        },
        {
          "name": "originFarmerID",
          "type": "address"
        },
        {
          "name": "originFarmName",
          "type": "string"
        },
        {
          "name": "originFarmInformation",
          "type": "string"
        },
        {
          "name": "originFarmLatitude",
          "type": "string"
        },
        {
          "name": "originFarmLongitude",
          "type": "string"
        },
        {
          "name": "productDate",
          "type": "uint256"
        },
        {
          "name": "productSliced",
          "type": "uint256"
        }
      ],
      "payable": false,
      "stateMutability": "view",
      "type": "function",
      "signature": "0x77c45913"
    },
    {
      "constant": true,
      "inputs": [
        {
          "name": "_upc",
          "type": "uint256"
        }
      ],
      "name": "fetchItemBufferTwo",
      "outputs": [
        {
          "name": "itemSKU",
          "type": "uint256"
        },
        {
          "name": "itemUPC",
          "type": "uint256"
        },
        {
          "name": "productID",
          "type": "uint256"
        },
        {
          "name": "productNotes",
          "type": "string"
        },
        {
          "name": "productPrice",
          "type": "uint256"
        },
        {
          "name": "productDate",
          "type": "uint256"
        },
        {
          "name": "itemState",
          "type": "uint8"
        },
        {
          "name": "distributorID",
          "type": "address"
        },
        {
          "name": "retailerID",
          "type": "address"
        },
        {
          "name": "consumerID",
          "type": "address"
        }
      ],
      "payable": false,
      "stateMutability": "view",
      "type": "function",
      "signature": "0x66225ff9"
    },
    {
      "constant": true,
      "inputs": [
        {
          "name": "_upc",
          "type": "uint256"
        }
      ],
      "name": "fetchitemHistory",
      "outputs": [
        {
          "name": "blockfarmerToDistributor",
          "type": "uint256"
        },
        {
          "name": "blockDistributorToRetailer",
          "type": "uint256"
        },
        {
          "name": "blockRetailerToConsumer",
          "type": "uint256"
        }
      ],
      "payable": false,
      "stateMutability": "view",
      "type": "function",
      "signature": "0x1154501c"
    }
  ],
  "bytecode": "0x6080604081905260008054600160a060020a0319163317808255600160a060020a0316917f5c486528ec3e3f0ea91181cff8116f02bfa350e03b8b6f12e00765adbb5af85c908290a36200005c33640100000000620000ba810204565b62000070336401000000006200010c810204565b62000084336401000000006200015e810204565b6200009833640100000000620001b0810204565b60058054600160a060020a031916331790556001600781905560065562000295565b620000d5600182640100000000620029996200020282021704565b604051600160a060020a038216907f2e0ded4123377a3c2bc9a26f1717655a129e2f20752924d42e730ec89c83dbd090600090a250565b62000127600282640100000000620029996200020282021704565b604051600160a060020a038216907fddbf200aa634dc3fb81cfd68583dd1040d1c751d335e1d86b631bde3e977fea890600090a250565b62000179600382640100000000620029996200020282021704565b604051600160a060020a038216907f71ae26cad02663e3d92efd6ec56031a80d74a20c0ab4183faa8bf262261c9baa90600090a250565b620001cb600482640100000000620029996200020282021704565b604051600160a060020a038216907f28b26e7a3d20aedbc5f8f2ebf7da671c0491723a2b78f47a097b0e46dee0714290600090a250565b600160a060020a03811615156200021857600080fd5b6200022d82826401000000006200025d810204565b156200023857600080fd5b600160a060020a0316600090815260209190915260409020805460ff19166001179055565b6000600160a060020a03821615156200027557600080fd5b50600160a060020a03166000908152602091909152604090205460ff1690565b612bbb80620002a56000396000f3fe60806040526004361061019a577c01000000000000000000000000000000000000000000000000000000006000350463112940f9811461019f5780631154501c146101d457806324cb16691461021c57806326d529b41461024657806337b2f92c1461026357806341c0e1b51461028d578063546eb586146102a25780635da09b88146102d2578063644241db1461031957806366225ff91461032e578063715018a61461045357806371f3ff90146104685780637250e2241461048557806377c45913146104b857806380c3f96d146106da57806380fc0ce41461070d57806382e831ec14610722578063834ff7391461074c5780638adff8ba1461077f5780638ec4f505146107af5780638f0c86fa146107e25780638f32d59b14610815578063915413551461082a578063b942906914610854578063db0e6a2f14610887578063df74dc3a1461089c578063e02e64ea146108b9578063e2bb26e9146108ea578063e618f00014610bc2578063eab7d6e814610bf2578063f2fde38b14610c22578063f487d48d14610c55578063fdcdc06f14610c88575b600080fd5b3480156101ab57600080fd5b506101d2600480360360208110156101c257600080fd5b5035600160a060020a0316610ca5565b005b3480156101e057600080fd5b506101fe600480360360208110156101f757600080fd5b5035610cc5565b60408051938452602084019290925282820152519081900360600190f35b34801561022857600080fd5b506101d26004803603602081101561023f57600080fd5b5035610d11565b6101d26004803603602081101561025c57600080fd5b5035610dcf565b34801561026f57600080fd5b506101d26004803603602081101561028657600080fd5b5035610f7b565b34801561029957600080fd5b506101d2611039565b3480156102ae57600080fd5b506101d2600480360360408110156102c557600080fd5b5080359060200135611074565b3480156102de57600080fd5b50610305600480360360208110156102f557600080fd5b5035600160a060020a031661113b565b604080519115158252519081900360200190f35b34801561032557600080fd5b506101d2611154565b34801561033a57600080fd5b506103586004803603602081101561035157600080fd5b503561115d565b604051808b81526020018a81526020018981526020018060200188815260200187815260200186600c81111561038a57fe5b60ff16815260200185600160a060020a0316600160a060020a0316815260200184600160a060020a0316600160a060020a0316815260200183600160a060020a0316600160a060020a03168152602001828103825289818151815260200191508051906020019080838360005b8381101561040f5781810151838201526020016103f7565b50505050905090810190601f16801561043c5780820380516001836020036101000a031916815260200191505b509b50505050505050505050505060405180910390f35b34801561045f57600080fd5b506101d26115e1565b6101d26004803603602081101561047e57600080fd5b5035611642565b34801561049157600080fd5b506101d2600480360360208110156104a857600080fd5b5035600160a060020a0316611700565b3480156104c457600080fd5b506104e2600480360360208110156104db57600080fd5b503561171d565b604051808b81526020018a815260200189600160a060020a0316600160a060020a0316815260200188600160a060020a0316600160a060020a031681526020018060200180602001806020018060200187815260200186815260200185810385528b818151815260200191508051906020019080838360005b8381101561057357818101518382015260200161055b565b50505050905090810190601f1680156105a05780820380516001836020036101000a031916815260200191505b5085810384528a5181528a516020918201918c019080838360005b838110156105d35781810151838201526020016105bb565b50505050905090810190601f1680156106005780820380516001836020036101000a031916815260200191505b5085810383528951815289516020918201918b019080838360005b8381101561063357818101518382015260200161061b565b50505050905090810190601f1680156106605780820380516001836020036101000a031916815260200191505b5085810382528851815288516020918201918a019080838360005b8381101561069357818101518382015260200161067b565b50505050905090810190601f1680156106c05780820380516001836020036101000a031916815260200191505b509e50505050505050505050505050505060405180910390f35b3480156106e657600080fd5b506101d2600480360360208110156106fd57600080fd5b5035600160a060020a0316611ba3565b34801561071957600080fd5b506101d2611bc0565b34801561072e57600080fd5b506101d26004803603602081101561074557600080fd5b5035611bc9565b34801561075857600080fd5b506103056004803603602081101561076f57600080fd5b5035600160a060020a0316611c8c565b34801561078b57600080fd5b506101d2600480360360408110156107a257600080fd5b5080359060200135611c9f565b3480156107bb57600080fd5b506101d2600480360360208110156107d257600080fd5b5035600160a060020a0316611d68565b3480156107ee57600080fd5b506103056004803603602081101561080557600080fd5b5035600160a060020a0316611d85565b34801561082157600080fd5b50610305611d98565b34801561083657600080fd5b506101d26004803603602081101561084d57600080fd5b5035611daa565b34801561086057600080fd5b506103056004803603602081101561087757600080fd5b5035600160a060020a0316611e68565b34801561089357600080fd5b506101d2611e7b565b6101d2600480360360208110156108b257600080fd5b5035611e84565b3480156108c557600080fd5b506108ce612040565b60408051600160a060020a039092168252519081900360200190f35b3480156108f657600080fd5b506101d2600480360360e081101561090d57600080fd5b8135919081019060408101602082013564010000000081111561092f57600080fd5b82018360208201111561094157600080fd5b8035906020019184600183028401116401000000008311171561096357600080fd5b91908080601f01602080910402602001604051908101604052809392919081815260200183838082843760009201919091525092959493602081019350359150506401000000008111156109b657600080fd5b8201836020820111156109c857600080fd5b803590602001918460018302840111640100000000831117156109ea57600080fd5b91908080601f0160208091040260200160405190810160405280939291908181526020018383808284376000920191909152509295949360208101935035915050640100000000811115610a3d57600080fd5b820183602082011115610a4f57600080fd5b80359060200191846001830284011164010000000083111715610a7157600080fd5b91908080601f0160208091040260200160405190810160405280939291908181526020018383808284376000920191909152509295949360208101935035915050640100000000811115610ac457600080fd5b820183602082011115610ad657600080fd5b80359060200191846001830284011164010000000083111715610af857600080fd5b91908080601f0160208091040260200160405190810160405280939291908181526020018383808284376000920191909152509295949360208101935035915050640100000000811115610b4b57600080fd5b820183602082011115610b5d57600080fd5b80359060200191846001830284011164010000000083111715610b7f57600080fd5b91908080601f016020809104026020016040519081016040528093929190818152602001838380828437600092019190915250929550509135925061204f915050565b348015610bce57600080fd5b506101d260048036036040811015610be557600080fd5b5080359060200135612349565b348015610bfe57600080fd5b506101d260048036036040811015610c1557600080fd5b508035906020013561240e565b348015610c2e57600080fd5b506101d260048036036020811015610c4557600080fd5b5035600160a060020a03166124d4565b348015610c6157600080fd5b506101d260048036036020811015610c7857600080fd5b5035600160a060020a03166124f4565b6101d260048036036020811015610c9e57600080fd5b50356124fd565b610cae33611c8c565b1515610cb957600080fd5b610cc2816126b2565b50565b6000806000610cd2612a33565b50505060009182525060096020908152604091829020825160608101845281548082526001830154938201849052600290920154930183905292909190565b610d1a33611d85565b1515610d2557600080fd5b8060036000828152600860205260409020600d015460ff16600c811115610d4857fe5b14610d5257600080fd5b600082815260086020526040902060020154600160a060020a0316338114610d7957600080fd5b600083815260086020908152604091829020600d01805460ff19166004179055815185815291517fc8ca2150e6e1849a10ef5aa4932060fa353bcacdffeb150c9e1890c6ab9403cc9281900390910190a1505050565b610dd83361113b565b1515610de357600080fd5b8060076000828152600860205260409020600d015460ff16600c811115610e0657fe5b14610e1057600080fd5b6000828152600860205260409020600b015434811115610e2f57600080fd5b600083815260086020526040808220600b0154905185923392913483900391849183156108fc0291849190818181858888f19350505050158015610e77573d6000803e3d6000fd5b506000878152600860205260408120600d0154610ea1906101009004600160a060020a0316611da7565b600089815260086020526040808220600b01549051929350600160a060020a0384169281156108fc0292818181858888f19350505050158015610ee8573d6000803e3d6000fd5b50600088815260086020818152604080842060028101805433600160a060020a03199182168117909255600e830180549091169091179055600d01805460ff19169093179092556009815291819020436001919091015580518a815290517faa7352d10146444c3afd9bd7fb0ae56b0a85e81139536bbec3f1f660fddd7be1929181900390910190a15050505050505050565b610f843361113b565b1515610f8f57600080fd5b8060096000828152600860205260409020600d015460ff16600c811115610fb257fe5b14610fbc57600080fd5b600082815260086020526040902060020154600160a060020a0316338114610fe357600080fd5b600083815260086020908152604091829020600d01805460ff1916600a179055815185815291517f322f34e90f2269750b3e28178631d975cc678db36f21098fe548b7f755ce0bd09281900390910190a1505050565b600554600160a060020a03163314156110725760055460009061106490600160a060020a0316611da7565b905080600160a060020a0316ff5b565b61107d3361113b565b151561108857600080fd5b81600a6000828152600860205260409020600d015460ff16600c8111156110ab57fe5b146110b557600080fd5b600083815260086020526040902060020154600160a060020a03163381146110dc57600080fd5b600084815260086020908152604091829020600d8101805460ff1916600b90811790915501859055815186815291517f59e7ad085805e2b02ad4b0f8033bd75e7ee4c8cd43f996267463585e358962529281900390910190a150505050565b600061114e60038363ffffffff6126fa16565b92915050565b61107233612731565b60008060006060600080600080600080611175612a55565b60008c8152600860209081526040918290208251610220810184528154815260018083015482850152600280840154600160a060020a0390811684880152600385015416606084015260048401805487516101009482161594909402600019011691909104601f81018690048602830186019096528582529194929360808601939192919083018282801561124b5780601f106112205761010080835404028352916020019161124b565b820191906000526020600020905b81548152906001019060200180831161122e57829003601f168201915b505050918352505060058201805460408051602060026001851615610100026000190190941693909304601f81018490048402820184019092528181529382019392918301828280156112df5780601f106112b4576101008083540402835291602001916112df565b820191906000526020600020905b8154815290600101906020018083116112c257829003601f168201915b505050918352505060068201805460408051602060026001851615610100026000190190941693909304601f81018490048402820184019092528181529382019392918301828280156113735780601f1061134857610100808354040283529160200191611373565b820191906000526020600020905b81548152906001019060200180831161135657829003601f168201915b505050918352505060078201805460408051602060026001851615610100026000190190941693909304601f81018490048402820184019092528181529382019392918301828280156114075780601f106113dc57610100808354040283529160200191611407565b820191906000526020600020905b8154815290600101906020018083116113ea57829003601f168201915b5050509183525050600882015460208083019190915260098301805460408051601f600260001961010060018716150201909416939093049283018590048502810185018252828152940193928301828280156114a55780601f1061147a576101008083540402835291602001916114a5565b820191906000526020600020905b81548152906001019060200180831161148857829003601f168201915b5050509183525050600a8201546020820152600b8201546040820152600c808301546060830152600d83015460809092019160ff16908111156114e457fe5b600c8111156114ef57fe5b8152602001600d820160019054906101000a9004600160a060020a0316600160a060020a0316600160a060020a03168152602001600e820160009054906101000a9004600160a060020a0316600160a060020a0316600160a060020a03168152602001600f820160009054906101000a9004600160a060020a0316600160a060020a0316600160a060020a031681525050905080600001518160200151826101000151836101200151846101600151856101400151866101a00151876101c00151886101e001518961020001518696509a509a509a509a509a509a509a509a509a509a50509193959799509193959799565b600554600160a060020a031633146115f857600080fd5b60008054604051600160a060020a03909116907f5c486528ec3e3f0ea91181cff8116f02bfa350e03b8b6f12e00765adbb5af85c908390a360008054600160a060020a0319169055565b61164b33611e68565b151561165657600080fd5b8060026000828152600860205260409020600d015460ff16600c81111561167957fe5b1461168357600080fd5b600082815260086020526040902060030154600160a060020a03163381146116aa57600080fd5b600083815260086020908152604091829020600d01805460ff19166003179055815185815291517fe6ae062d51064ae2a5a31a72fcb1bee1d343fdc6bddc1d3dfce658ece4f032129281900390910190a1505050565b61170933611d85565b151561171457600080fd5b610cc281612779565b600080600080606080606080600080611734612a55565b60008c8152600860209081526040918290208251610220810184528154815260018083015482850152600280840154600160a060020a0390811684880152600385015416606084015260048401805487516101009482161594909402600019011691909104601f81018690048602830186019096528582529194929360808601939192919083018282801561180a5780601f106117df5761010080835404028352916020019161180a565b820191906000526020600020905b8154815290600101906020018083116117ed57829003601f168201915b505050918352505060058201805460408051602060026001851615610100026000190190941693909304601f810184900484028201840190925281815293820193929183018282801561189e5780601f106118735761010080835404028352916020019161189e565b820191906000526020600020905b81548152906001019060200180831161188157829003601f168201915b505050918352505060068201805460408051602060026001851615610100026000190190941693909304601f81018490048402820184019092528181529382019392918301828280156119325780601f1061190757610100808354040283529160200191611932565b820191906000526020600020905b81548152906001019060200180831161191557829003601f168201915b505050918352505060078201805460408051602060026001851615610100026000190190941693909304601f81018490048402820184019092528181529382019392918301828280156119c65780601f1061199b576101008083540402835291602001916119c6565b820191906000526020600020905b8154815290600101906020018083116119a957829003601f168201915b5050509183525050600882015460208083019190915260098301805460408051601f60026000196101006001871615020190941693909304928301859004850281018501825282815294019392830182828015611a645780601f10611a3957610100808354040283529160200191611a64565b820191906000526020600020905b815481529060010190602001808311611a4757829003601f168201915b5050509183525050600a8201546020820152600b8201546040820152600c808301546060830152600d83015460809092019160ff1690811115611aa357fe5b600c811115611aae57fe5b8152602001600d820160019054906101000a9004600160a060020a0316600160a060020a0316600160a060020a03168152602001600e820160009054906101000a9004600160a060020a0316600160a060020a0316600160a060020a03168152602001600f820160009054906101000a9004600160a060020a0316600160a060020a0316600160a060020a0316815250509050806000015181602001518260400151836060015184608001518560a001518660c001518760e001518861014001518961018001518595508494508393508292509a509a509a509a509a509a509a509a509a509a50509193959799509193959799565b611bac33611e68565b1515611bb757600080fd5b610cc2816127c1565b61107233612809565b611bd233611d85565b1515611bdd57600080fd5b8060086000828152600860205260409020600d015460ff16600c811115611c0057fe5b14611c0a57600080fd5b6000828152600860205260409020600d01546101009004600160a060020a0316338114611c3657600080fd5b600083815260086020908152604091829020600d01805460ff19166009179055815185815291517fc5c33776d405e5686e4386e1ef31a65cf6195e4f7ceb8808ab64d05b6ccbc2a69281900390910190a1505050565b600061114e60048363ffffffff6126fa16565b611ca833611d85565b1515611cb357600080fd5b8160066000828152600860205260409020600d015460ff16600c811115611cd657fe5b14611ce057600080fd5b600083815260086020526040902060020154600160a060020a0316338114611d0757600080fd5b600084815260086020908152604091829020600d8101805460ff19166007179055600b01859055600654825190815291517f539b4a835a8a5d1bc5756a9f146e2bfeaa6bd6b1fa77a7631c0a5154c86cdd039281900390910190a150505050565b611d713361113b565b1515611d7c57600080fd5b610cc281612851565b600061114e60028363ffffffff6126fa16565b600054600160a060020a031633145b90565b611db333611d85565b1515611dbe57600080fd5b8060056000828152600860205260409020600d015460ff16600c811115611de157fe5b14611deb57600080fd5b600082815260086020526040902060020154600160a060020a0316338114611e1257600080fd5b600083815260086020908152604091829020600d01805460ff19166006179055815185815291517fe66bb55f536a4cc96647dde6ff37b712c07348eaa88366931f491d93c0fcd9819281900390910190a1505050565b600061114e60018363ffffffff6126fa16565b61107233612899565b611e8d33611c8c565b1515611e9857600080fd5b80600b6000828152600860205260409020600d015460ff16600c811115611ebb57fe5b14611ec557600080fd5b6000828152600860205260409020600b015434811115611ee457600080fd5b600083815260086020526040808220600b0154905185923392913483900391849183156108fc0291849190818181858888f19350505050158015611f2c573d6000803e3d6000fd5b506000878152600860205260408120600f81018054600160a060020a03191633179055600e0154611f6590600160a060020a0316611da7565b600089815260086020526040808220600b01549051929350600160a060020a0384169281156108fc0292818181858888f19350505050158015611fac573d6000803e3d6000fd5b50600088815260086020908152604080832060028082018054600160a060020a031990811633908117909255600f840180549091169091179055600d909101805460ff1916600c17905560098352928190204393019290925581518a815291517fc7e94446a942a0541d0224ece380a730c85f03db7188fca783225da9255929f79281900390910190a15050505050505050565b600054600160a060020a031690565b61205833611e68565b151561206357600080fd5b6000806000612070612a55565b600754808252602082018c905233604083018190526060830152608082018b905260a082018a905260c0820189905260e082018890528b016101008201526101208101869052610160810185905242610140820152600061018082018190526101a0820181905250600160a060020a038085166101c08301528381166101e083015282811661020083015260008c8152600860209081526040918290208451815581850151600182015591840151600283018054918516600160a060020a0319928316179055606085015160038401805491909516911617909255608083015180518493612165926004850192910190612af7565b5060a08201518051612181916005840191602090910190612af7565b5060c0820151805161219d916006840191602090910190612af7565b5060e082015180516121b9916007840191602090910190612af7565b50610100820151600882015561012082015180516121e1916009840191602090910190612af7565b5061014082015181600a015561016082015181600b015561018082015181600c01556101a082015181600d0160006101000a81548160ff0219169083600c81111561222857fe5b02179055506101c0820151600d8201805474ffffffffffffffffffffffffffffffffffffffff001916610100600160a060020a03938416021790556101e0830151600e83018054600160a060020a031990811692841692909217905561020090930151600f9092018054909316911617905560006122a4612a33565b81816000018181525050818160200181815250508181604001818152505080600960008f81526020019081526020016000206000820151816000015560208201518160010155604082015181600201559050506007546001016007819055507fe8a027a2bb83abbf6ec926b84d4aeb91585c16b58b27b8d0f0fb451566a552118d6040518082815260200191505060405180910390a150505050505050505050505050565b61235233611e68565b151561235d57600080fd5b81600080828152600860205260409020600d015460ff16600c81111561237f57fe5b1461238957600080fd5b600083815260086020526040902060020154600160a060020a03163381146123b057600080fd5b600084815260086020908152604091829020600d8101805460ff19166001179055600b01859055815186815291517f7a02b5a0b1f928cffcafd0e750f369a40f124f4f34f65801fe1f0d945b9a79159281900390910190a150505050565b61241733611d85565b151561242257600080fd5b8160046000828152600860205260409020600d015460ff16600c81111561244557fe5b1461244f57600080fd5b600083815260086020526040902060020154600160a060020a031633811461247657600080fd5b600084815260086020908152604091829020600d8101805460ff19166005179055600c01859055815186815291517f5725e53fd0efed5294b7db2af148f040264a63630b4deb0afbccf6e60830988a9281900390910190a150505050565b600554600160a060020a031633146124eb57600080fd5b610cc2816128e1565b610cc281612951565b61250633611d85565b151561251157600080fd5b8060016000828152600860205260409020600d015460ff16600c81111561253457fe5b1461253e57600080fd5b6000828152600860205260409020600b01543481111561255d57600080fd5b600083815260086020526040808220600b0154905185923392913483900391849183156108fc0291849190818181858888f193505050501580156125a5573d6000803e3d6000fd5b506000878152600860205260408120600301546125ca90600160a060020a0316611da7565b600089815260086020526040808220600b01549051929350600160a060020a0384169281156108fc0292818181858888f19350505050158015612611573d6000803e3d6000fd5b5060008881526008602090815260408083206002808201805433600160a060020a03199091168117909155600d909201805474ffffffffffffffffffffffffffffffffffffffff0019166101009093029290921760ff1916179055600982529182902043905581518a815291517facd9402b9f9e8c15fa7c1819f8393ca56eb61316cc354fc6ac2150aed3ce79319281900390910190a15050505050505050565b6126c360048263ffffffff61299916565b604051600160a060020a038216907f28b26e7a3d20aedbc5f8f2ebf7da671c0491723a2b78f47a097b0e46dee0714290600090a250565b6000600160a060020a038216151561271157600080fd5b50600160a060020a03166000908152602091909152604090205460ff1690565b61274260028263ffffffff6129e716565b604051600160a060020a038216907f126174f6cf49c81cdb4a9214c6b8f037bef55b4ec31e4fc776cea2a1c8a88d5990600090a250565b61278a60028263ffffffff61299916565b604051600160a060020a038216907fddbf200aa634dc3fb81cfd68583dd1040d1c751d335e1d86b631bde3e977fea890600090a250565b6127d260018263ffffffff61299916565b604051600160a060020a038216907f2e0ded4123377a3c2bc9a26f1717655a129e2f20752924d42e730ec89c83dbd090600090a250565b61281a60018263ffffffff6129e716565b604051600160a060020a038216907fa5e0f060af304ab17dd418c7927e3da3ae7868189bf387aee09ab179ccc572f290600090a250565b61286260038263ffffffff61299916565b604051600160a060020a038216907f71ae26cad02663e3d92efd6ec56031a80d74a20c0ab4183faa8bf262261c9baa90600090a250565b6128aa60038263ffffffff6129e716565b604051600160a060020a038216907fdb7176e79cffef81cb01767dd0447a0b24bb72ca9778d4b245581086b2a7e6db90600090a250565b600160a060020a03811615156128f657600080fd5b60008054604051600160a060020a03808516939216917f5c486528ec3e3f0ea91181cff8116f02bfa350e03b8b6f12e00765adbb5af85c91a360008054600160a060020a031916600160a060020a0392909216919091179055565b61296260048263ffffffff6129e716565b604051600160a060020a038216907fe3f5ed5f263f1f01764a96edfc7d025f511ec5f7d180e8816908b78bcf74f09890600090a250565b600160a060020a03811615156129ae57600080fd5b6129b882826126fa565b156129c257600080fd5b600160a060020a0316600090815260209190915260409020805460ff19166001179055565b600160a060020a03811615156129fc57600080fd5b612a0682826126fa565b1515612a1157600080fd5b600160a060020a0316600090815260209190915260409020805460ff19169055565b6060604051908101604052806000815260200160008152602001600081525090565b6102206040519081016040528060008152602001600081526020016000600160a060020a031681526020016000600160a060020a031681526020016060815260200160608152602001606081526020016060815260200160008152602001606081526020016000815260200160008152602001600081526020016000600c811115612adc57fe5b81526000602082018190526040820181905260609091015290565b828054600181600116156101000203166002900490600052602060002090601f016020900481019282601f10612b3857805160ff1916838001178555612b65565b82800160010185558215612b65579182015b82811115612b65578251825591602001919060010190612b4a565b50612b71929150612b75565b5090565b611da791905b80821115612b715760008155600101612b7b56fea165627a7a723058206e7781da5c38f7403dc5699431eab05293efe8e6def5982545a5d7d1c8a9dae30029",
  "source": "pragma solidity >=0.4.24;\r\n\r\n// inherited contracts\r\nimport '../miraccore/Ownable.sol';\r\nimport '../miracaccesscontrol/FarmerRole.sol';\r\nimport '../miracaccesscontrol/DistributorRole.sol';\r\nimport '../miracaccesscontrol/RetailerRole.sol';\r\nimport '../miracaccesscontrol/ConsumerRole.sol';\r\n\r\n\r\n// Define a contract 'Supplychain'\r\ncontract SupplyChain is Ownable,FarmerRole,DistributorRole,RetailerRole,ConsumerRole {\r\n\r\n  // Define 'owner'\r\n  address owner;\r\n\r\n  // Define a variable called 'upc' for Universal Product Code (UPC)\r\n  uint  upc;\r\n\r\n  // Define a variable called 'sku' for Stock Keeping Unit (SKU)\r\n  uint  sku;\r\n\r\n  // Define a public mapping 'items' that maps the UPC to an Item.\r\n  mapping (uint => Item) items;\r\n\r\n  // Define a public mapping 'itemsHistory' that maps the UPC to an array of TxHash,\r\n  // that track its journey through the supply chain -- to be sent from DApp.\r\n  mapping (uint => Txblocks) itemsHistory;\r\n\r\n  // Define enum 'State' with the following values:\r\n  enum State\r\n  {\r\n    ProduceByFarmer,         // 0\r\n    ForSaleByFarmer,         // 1\r\n    PurchasedByDistributor,  // 2\r\n    ShippedByFarmer,         // 3\r\n    ReceivedByDistributor,   // 4\r\n    ProcessedByDistributor,  // 5\r\n    PackageByDistributor,    // 6\r\n    ForSaleByDistributor,    // 7\r\n    PurchasedByRetailer,     // 8\r\n    ShippedByDistributor,    // 9\r\n    ReceivedByRetailer,      // 10\r\n    ForSaleByRetailer,       // 11\r\n    PurchasedByConsumer      // 12\r\n    }\r\n\r\n\r\n  State constant defaultState = State.ProduceByFarmer;\r\n\r\n  // Define a struct 'Item' with the following fields:\r\n  struct Item {\r\n    uint    sku;                    // Stock Keeping Unit (SKU)\r\n    uint    upc;                    // Universal Product Code (UPC), generated by the Farmer, goes on the package, can be verified by the Consumer\r\n    address ownerID;                // Metamask-Ethereum address of the current owner as the product moves through 8 stages\r\n    address originFarmerID;         // Metamask-Ethereum address of the Farmer // ADDED PAYABLE\r\n    string  originFarmName;         // Farmer Name\r\n    string  originFarmInformation;  // Farmer Information\r\n    string  originFarmLatitude;     // Farm Latitude\r\n    string  originFarmLongitude;    // Farm Longitude\r\n    uint    productID;              // Product ID potentially a combination of upc + sku\r\n    string  productNotes;           // Product Notes\r\n    uint256 productDate;            // Product Date NOTE: MIGHT NEED TO CHANGE type\r\n    uint    productPrice;           // Product Price\r\n    uint    productSliced;          // Parent cheese\r\n    State   itemState;              // Product State as represented in the enum above\r\n    address distributorID;          // Metamask-Ethereum address of the Distributor\r\n    address retailerID;             // Metamask-Ethereum address of the Retailer\r\n    address consumerID;             // Metamask-Ethereum address of the Consumer // ADDED payable\r\n  }\r\n\r\n// Block number stuct\r\n  struct Txblocks {\r\n    uint FTD; // blockfarmerToDistributor\r\n    uint DTR; // blockDistributorToRetailer\r\n    uint RTC; // blockRetailerToConsumer\r\n  }\r\n\r\n\r\nevent ProduceByFarmer(uint upc);         //1\r\nevent ForSaleByFarmer(uint upc);         //2\r\nevent PurchasedByDistributor(uint upc);  //3\r\nevent ShippedByFarmer(uint upc);         //4\r\nevent ReceivedByDistributor(uint upc);   //5\r\nevent ProcessedByDistributor(uint upc);  //6\r\nevent PackagedByDistributor(uint upc);   //7\r\nevent ForSaleByDistributor(uint upc);    //8\r\nevent PurchasedByRetailer(uint upc);     //9\r\nevent ShippedByDistributor(uint upc);    //10\r\nevent ReceivedByRetailer(uint upc);      //11\r\nevent ForSaleByRetailer(uint upc);       //12\r\nevent PurchasedByConsumer(uint upc);     //13\r\n\r\n\r\n  // Define a modifer that checks to see if msg.sender == owner of the contract\r\n  modifier onlyOwner() {\r\n    require(msg.sender == owner);\r\n    _;\r\n  }\r\n\r\n  // Define a modifer that verifies the Caller\r\n  modifier verifyCaller (address _address) {\r\n    require(msg.sender == _address);\r\n    _;\r\n  }\r\n\r\n  // Define a modifier that checks if the paid amount is sufficient to cover the price\r\n  modifier paidEnough(uint _price) {\r\n    require(msg.value >= _price);\r\n    _;\r\n  }\r\n\r\n  // Define a modifier that checks the price and refunds the remaining balance\r\n  modifier checkValue(uint _upc, address payable addressToFund) {\r\n    uint _price = items[_upc].productPrice;\r\n    uint  amountToReturn = msg.value - _price;\r\n    addressToFund.transfer(amountToReturn);\r\n    _;\r\n  }\r\n\r\n//Item State Modifiers\r\n  modifier producedByFarmer(uint _upc) {\r\n    require(items[_upc].itemState == State.ProduceByFarmer);\r\n    _;\r\n  }\r\n\r\n  modifier forSaleByFarmer(uint _upc) {\r\n    require(items[_upc].itemState == State.ForSaleByFarmer);\r\n    _;\r\n  }\r\n\r\n  modifier purchasedByDistributor(uint _upc) {\r\n    require(items[_upc].itemState == State.PurchasedByDistributor);\r\n    _;\r\n  }\r\n\r\n  modifier shippedByFarmer(uint _upc) {\r\n    require(items[_upc].itemState == State.ShippedByFarmer);\r\n    _;\r\n  }\r\n\r\n  modifier receivedByDistributor(uint _upc) {\r\n    require(items[_upc].itemState == State.ReceivedByDistributor);\r\n    _;\r\n  }\r\n\r\n  modifier processByDistributor(uint _upc) {\r\n    require(items[_upc].itemState == State.ProcessedByDistributor);\r\n    _;\r\n  }\r\n\r\n  modifier packagedByDistributor(uint _upc) {\r\n    require(items[_upc].itemState == State.PackageByDistributor);\r\n    _;\r\n  }\r\n\r\n  modifier forSaleByDistributor(uint _upc) {\r\n    require(items[_upc].itemState == State.ForSaleByDistributor);\r\n    _;\r\n  }\r\n\r\n\r\n  modifier shippedByDistributor(uint _upc) {\r\n    require(items[_upc].itemState == State.ShippedByDistributor);\r\n    _;\r\n  }\r\n\r\n  modifier purchasedByRetailer(uint _upc) {\r\n    require(items[_upc].itemState == State.PurchasedByRetailer);\r\n    _;\r\n  }\r\n\r\n  modifier receivedByRetailer(uint _upc) {\r\n    require(items[_upc].itemState == State.ReceivedByRetailer);\r\n    _;\r\n  }\r\n\r\n  modifier forSaleByRetailer(uint _upc) {\r\n    require(items[_upc].itemState == State.ForSaleByRetailer);\r\n    _;\r\n  }\r\n\r\n  modifier purchasedByConsumer(uint _upc) {\r\n    require(items[_upc].itemState == State.PurchasedByConsumer);\r\n    _;\r\n  }\r\n\r\n// constructor setup owner sku upc\r\n  constructor() public payable {\r\n    owner = msg.sender;\r\n    sku = 1;\r\n    upc = 1;\r\n  }\r\n\r\n    // Define a function 'kill'\r\n  function kill() public {\r\n    if (msg.sender == owner) {\r\n      address payable ownerAddressPayable = _make_payable(owner);\r\n      selfdestruct(ownerAddressPayable);\r\n    }\r\n  }\r\n\r\n\r\n    // allows you to convert an address into a payable address\r\n  function _make_payable(address x) internal pure returns (address payable) {\r\n      return address(uint160(x));\r\n  }\r\n\r\n/*\r\n 1st step in supplychain\r\n Allows farmer to create cheese\r\n*/\r\n  function produceItemByFarmer(uint _upc, string memory _originFarmName, string memory _originFarmInformation, string memory _originFarmLatitude, string memory _originFarmLongitude, string memory _productNotes, uint _price) public\r\n    onlyFarmer() // check address belongs to farmerRole\r\n    {\r\n\r\n    address distributorID; // Empty distributorID address\r\n    address retailerID; // Empty retailerID address\r\n    address consumerID; // Empty consumerID address\r\n    Item memory newProduce; // Create a new struct Item in memory\r\n    newProduce.sku = sku;  // Stock Keeping Unit (SKU)\r\n    newProduce.upc = _upc; // Universal Product Code (UPC), generated by the Farmer, goes on the package, can be verified by the Consumer\r\n    newProduce.ownerID = msg.sender;  // Metamask-Ethereum address of the current owner as the product moves through 8 stages\r\n    newProduce.originFarmerID = msg.sender; // Metamask-Ethereum address of the Farmer\r\n    newProduce.originFarmName = _originFarmName;  // Farmer Name\r\n    newProduce.originFarmInformation = _originFarmInformation; // Farmer Information\r\n    newProduce.originFarmLatitude = _originFarmLatitude; // Farm Latitude\r\n    newProduce.originFarmLongitude = _originFarmLongitude;  // Farm Longitude\r\n    newProduce.productID = _upc+sku;  // Product ID\r\n    newProduce.productNotes = _productNotes; // Product Notes\r\n    newProduce.productPrice = _price;  // Product Price\r\n    newProduce.productDate = now;\r\n    newProduce.productSliced = 0;\r\n    newProduce.itemState = defaultState; // Product State as represented in the enum above\r\n    newProduce.distributorID = distributorID; // Metamask-Ethereum address of the Distributor\r\n    newProduce.retailerID = retailerID; // Metamask-Ethereum address of the Retailer\r\n    newProduce.consumerID = consumerID; // Metamask-Ethereum address of the Consumer // ADDED payable\r\n    items[_upc] = newProduce; // Add newProduce to items struct by upc\r\n    uint placeholder; // Block number place holder\r\n    Txblocks memory txBlock; // create new txBlock struct\r\n    txBlock.FTD = placeholder; // assign placeholder values\r\n    txBlock.DTR = placeholder;\r\n    txBlock.RTC = placeholder;\r\n    itemsHistory[_upc] = txBlock; // add txBlock to itemsHistory mapping by upc\r\n\r\n    // Increment sku\r\n    sku = sku + 1;\r\n\r\n    // Emit the appropriate event\r\n    emit ProduceByFarmer(_upc);\r\n\r\n  }\r\n\r\n/*\r\n2nd step in supplychain\r\nAllows farmer to sell cheese\r\n*/\r\n  function sellItemByFarmer(uint _upc, uint _price) public\r\n    onlyFarmer() // check msg.sender belongs to farmerRole\r\n    producedByFarmer(_upc) // check items state has been produced\r\n    verifyCaller(items[_upc].ownerID) // check msg.sender is owner\r\n    {\r\n      items[_upc].itemState = State.ForSaleByFarmer;\r\n      items[_upc].productPrice = _price;\r\n      emit ForSaleByFarmer(_upc);\r\n  }\r\n\r\n/*\r\n3rd step in supplychain\r\nAllows distributor to purchase cheese\r\n*/\r\n  function purchaseItemByDistributor(uint _upc) public payable\r\n    onlyDistributor() // check msg.sender belongs to distributorRole\r\n    forSaleByFarmer(_upc) // check items state is for ForSaleByFarmer\r\n    paidEnough(items[_upc].productPrice) // check if distributor sent enough Ether for cheese\r\n    checkValue(_upc, msg.sender) // check if overpayed return remaing funds back to msg.sender\r\n    {\r\n    address payable ownerAddressPayable = _make_payable(items[_upc].originFarmerID); // make originFarmID payable\r\n    ownerAddressPayable.transfer(items[_upc].productPrice); // transfer funds from distributor to farmer\r\n    items[_upc].ownerID = msg.sender; // update owner\r\n    items[_upc].distributorID = msg.sender; // update distributor\r\n    items[_upc].itemState = State.PurchasedByDistributor; // update state\r\n    itemsHistory[_upc].FTD = block.number; // add block number\r\n    emit PurchasedByDistributor(_upc);\r\n\r\n  }\r\n\r\n  /*\r\n  4th step in supplychain\r\n  Allows farmer to ship cheese purchased by distributor\r\n  */\r\n  function shippedItemByFarmer(uint _upc) public payable\r\n    onlyFarmer() // check msg.sender belongs to FarmerRole\r\n    purchasedByDistributor(_upc)\r\n    verifyCaller(items[_upc].originFarmerID) // check msg.sender is originFarmID\r\n    {\r\n    items[_upc].itemState = State.ShippedByFarmer; // update state\r\n    emit ShippedByFarmer(_upc);\r\n  }\r\n\r\n  /*\r\n  5th step in supplychain\r\n  Allows distributor to receive cheese\r\n  */\r\n  function receivedItemByDistributor(uint _upc) public\r\n    onlyDistributor() // check msg.sender belongs to DistributorRole\r\n    shippedByFarmer(_upc)\r\n    verifyCaller(items[_upc].ownerID) // check msg.sender is owner\r\n    {\r\n    items[_upc].itemState = State.ReceivedByDistributor; // update state\r\n    emit ReceivedByDistributor(_upc);\r\n  }\r\n\r\n  /*\r\n  6th step in supplychain\r\n  Allows distributor to process cheese\r\n  */\r\n  function processedItemByDistributor(uint _upc,uint slices) public\r\n    onlyDistributor() // check msg.sender belongs to DistributorRole\r\n    receivedByDistributor(_upc)\r\n    verifyCaller(items[_upc].ownerID) // check msg.sender is owner\r\n    {\r\n    items[_upc].itemState = State.ProcessedByDistributor; // update state\r\n    items[_upc].productSliced = slices; // add slice amount\r\n    emit ProcessedByDistributor(_upc);\r\n  }\r\n\r\n  /*\r\n  7th step in supplychain\r\n  Allows distributor to package cheese\r\n  */\r\n  function packageItemByDistributor(uint _upc) public\r\n    onlyDistributor() // check msg.sender belongs to DistributorRole\r\n    processByDistributor(_upc)\r\n    verifyCaller(items[_upc].ownerID) // check msg.sender is owner\r\n    {\r\n    items[_upc].itemState = State.PackageByDistributor;\r\n    emit PackagedByDistributor(_upc);\r\n  }\r\n\r\n  /*\r\n  8th step in supplychain\r\n  Allows distributor to sell cheese\r\n  */\r\n  function sellItemByDistributor(uint _upc, uint _price) public\r\n    onlyDistributor() // check msg.sender belongs to DistributorRole\r\n    packagedByDistributor(_upc)\r\n    verifyCaller(items[_upc].ownerID) // check msg.sender is owner\r\n    {\r\n        items[_upc].itemState = State.ForSaleByDistributor;\r\n        items[_upc].productPrice = _price;\r\n        emit ForSaleByDistributor(upc);\r\n  }\r\n\r\n  /*\r\n  9th step in supplychain\r\n  Allows retailer to purchase cheese\r\n  */\r\n  function purchaseItemByRetailer(uint _upc) public payable\r\n    onlyRetailer() // check msg.sender belongs to RetailerRole\r\n    forSaleByDistributor(_upc)\r\n    paidEnough(items[_upc].productPrice)\r\n    checkValue(_upc, msg.sender)\r\n    {\r\n    address payable ownerAddressPayable = _make_payable(items[_upc].distributorID);\r\n    ownerAddressPayable.transfer(items[_upc].productPrice);\r\n    items[_upc].ownerID = msg.sender;\r\n    items[_upc].retailerID = msg.sender;\r\n    items[_upc].itemState = State.PurchasedByRetailer;\r\n    itemsHistory[_upc].DTR = block.number;\r\n    emit PurchasedByRetailer(_upc);\r\n  }\r\n\r\n  /*\r\n  10th step in supplychain\r\n  Allows Distributor to\r\n  */\r\n  function shippedItemByDistributor(uint _upc) public\r\n    onlyDistributor() // check msg.sender belongs to DistributorRole\r\n    purchasedByRetailer(_upc)\r\n    verifyCaller(items[_upc].distributorID) // check msg.sender is distributorID\r\n    {\r\n      items[_upc].itemState = State.ShippedByDistributor;\r\n      emit ShippedByDistributor(_upc);\r\n  }\r\n\r\n  /*\r\n  11th step in supplychain\r\n  */\r\n  function receivedItemByRetailer(uint _upc) public\r\n    onlyRetailer() // check msg.sender belongs to RetailerRole\r\n    shippedByDistributor(_upc)\r\n    verifyCaller(items[_upc].ownerID) // check msg.sender is ownerID\r\n    {\r\n      items[_upc].itemState = State.ReceivedByRetailer;\r\n      emit ReceivedByRetailer(_upc);\r\n  }\r\n\r\n  /*\r\n  12th step in supplychain\r\n  */\r\n  function sellItemByRetailer(uint _upc, uint _price) public\r\n    onlyRetailer()  // check msg.sender belongs to RetailerRole\r\n    receivedByRetailer(_upc)\r\n    verifyCaller(items[_upc].ownerID) // check msg.sender is ownerID\r\n    {\r\n      items[_upc].itemState = State.ForSaleByRetailer;\r\n      items[_upc].productPrice = _price;\r\n      emit ForSaleByRetailer(_upc);\r\n  }\r\n\r\n  /*\r\n  13th step in supplychain\r\n  */\r\n  function purchaseItemByConsumer(uint _upc) public payable\r\n    onlyConsumer()  // check msg.sender belongs to ConsumerRole\r\n    forSaleByRetailer(_upc)\r\n    paidEnough(items[_upc].productPrice)\r\n    checkValue(_upc, msg.sender)\r\n    {\r\n      items[_upc].consumerID = msg.sender;\r\n      address payable ownerAddressPayable = _make_payable(items[_upc].retailerID);\r\n      ownerAddressPayable.transfer(items[_upc].productPrice);\r\n      items[_upc].ownerID = msg.sender;\r\n      items[_upc].consumerID = msg.sender;\r\n      items[_upc].itemState = State.PurchasedByConsumer;\r\n      itemsHistory[_upc].RTC = block.number;\r\n    emit PurchasedByConsumer(_upc);\r\n  }\r\n\r\n  // Define a function 'fetchItemBufferOne' that fetches the data\r\n  function fetchItemBufferOne(uint _upc) public view returns\r\n    (\r\n    uint    itemSKU,\r\n    uint    itemUPC,\r\n    address ownerID,\r\n    address originFarmerID,\r\n    string memory  originFarmName,\r\n    string memory originFarmInformation,\r\n    string memory originFarmLatitude,\r\n    string memory originFarmLongitude,\r\n    uint productDate,\r\n    uint productSliced\r\n    )\r\n    {\r\n    // Assign values to the 8 parameters\r\n    Item memory item = items[_upc];\r\n\r\n    return\r\n    (\r\n      item.sku,\r\n      item.upc,\r\n      item.ownerID,\r\n      item.originFarmerID,\r\n      item.originFarmName,\r\n      item.originFarmInformation,\r\n      item.originFarmLatitude,\r\n      item.originFarmLongitude,\r\n      item.productDate,\r\n      item.productSliced\r\n    );\r\n  }\r\n\r\n  // Define a function 'fetchItemBufferTwo' that fetches the data\r\n  function fetchItemBufferTwo(uint _upc) public view returns\r\n    (\r\n    uint    itemSKU,\r\n    uint    itemUPC,\r\n    uint    productID,\r\n    string  memory productNotes,\r\n    uint    productPrice,\r\n    uint256 productDate,\r\n    State   itemState,\r\n    address distributorID,\r\n    address retailerID,\r\n    address consumerID\r\n    )\r\n    {\r\n      // Assign values to the 9 parameters\r\n    Item memory item = items[_upc];\r\n\r\n    return\r\n    (\r\n      item.sku,\r\n      item.upc,\r\n      item.productID,\r\n      item.productNotes,\r\n      item.productPrice,\r\n      item.productDate,\r\n      item.itemState,\r\n      item.distributorID,\r\n      item.retailerID,\r\n      item.consumerID\r\n    );\r\n\r\n  }\r\n\r\n  // Define a function 'fetchItemHistory' that fetaches the data\r\n  function fetchitemHistory(uint _upc) public view returns\r\n    (\r\n      uint blockfarmerToDistributor,\r\n      uint blockDistributorToRetailer,\r\n      uint blockRetailerToConsumer\r\n    )\r\n    {\r\n      // Assign value to the parameters\r\n      Txblocks memory txblock = itemsHistory[_upc];\r\n      return\r\n      (\r\n        txblock.FTD,\r\n        txblock.DTR,\r\n        txblock.RTC\r\n      );\r\n\r\n    }\r\n\r\n  }\r\n",
  "sourcePath": "C:/Users/ADMIN/Ethereum-SupplyChain/contracts/miracbase/SupplyChain.sol",
  "compiler": {
    "name": "solc",
    "version": "0.5.1+commit.c8a2cb62.Emscripten.clang"
  },
  "schemaVersion": "3.0.2",
  "updatedAt": "2022-11-02T00:29:33.273Z",
  "devdoc": {
    "methods": {}
  },
  "userdoc": {
    "methods": {
      "isOwner()": {
        "notice": "Check if the calling address is the owner of the contract"
      },
      "ownerLookup()": {
        "notice": "Look up the address of the owner"
      },
      "renounceOwnership()": {
        "notice": "Define a function to renounce ownerhip"
      },
      "transferOwnership(address)": {
        "notice": "Define a public function to transfer ownership"
      }
    }
  }
}